:020000040000FA
:0400000007EF00F016
:10000800288209ED00F01EEF01F00600F2A40FEFC0
:1000180000F011EF00F061EF00F0F294070ED62621
:10002800000ED722010E2226000E2322242225228A
:100038002650D8B422EF00F024EF00F029EF00F0AA
:1000480026068284839C2BEF00F08294838C22C046
:1000580001F023C002F024C003F025C004F0140E00
:10006800056E000E066E000E076E000E086E63EC3D
:1000780000F00150021003100410D8A446EF00F05D
:1000880048EF00F061EF00F027C026F027B002D05B
:10009800829401D0828482A454EF00F058EF00F0DB
:1000A8000A6A0A2A59EF00F00A6A0A3A0A460A4610
:1000B80083500A18BF0B0A18836E28921100055046
:1000C800061007100810D8B46CEF00F06EEF00F0BF
:1000D8009EEF00F0010E096E78EF00F0D89005361B
:1000E800063607360836092A08AE7DEF00F07FEF9E
:1000F80000F072EF00F00550015C065002580750FE
:10010800035808500458D8A08CEF00F08EEF00F088
:1001180096EF00F00550015E0650025A0750035A48
:100128000850045AD8900832073206320532092E90
:100138007FEF00F001C001F002C002F003C003F03D
:1001480004C004F012000BEC01F00BC01DF00CC051
:100158001EF00DC01FF00EC020F01350156E145085
:10016800166E176A186A0BEC01F01D500B5C196EBD
:100178001E500C581A6E1F500D581B6E20500E58EA
:100188001C6E1550195C16501A5817501B581850E9
:100198001C58D8A0D2EF00F0D4EF00F0B1EF00F077
:1001A8001200F4EC00F0010E276E000E146E040E1F
:1001B800136EA7EC00F083AAE4EF00F0E8EF00F07C
:1001C800216A212AE9EF00F0216A213A2146835069
:1001D8002118DF0B2118836ED9EF00F007EF00F02C
:1001E8000F0EC16E070EB46EF19E936828EC01F0F5
:1001F8009494959A959C958E000E266ED59AD596D0
:10020800D590D592D584F28AF28CF28E1200F29EA5
:1002180022C00FF023C010F024C011F025C012F046
:10022800F28E0FC00BF010C00CF011C00DF012C010
:100238000EF01200266A256A246A236A226A289028
:1002480028920001D5EF00F0CF0EAF6EAC84AC98C9
:0C025800AB8E948E948CAB88AC8A1200A4
:020000040020DA
:08000000FFFFFFFFFFFFFFFF00
:020000040030CA
:0E000000FF06191EFF0180FF0FC00FE00F402A
:00000001FF
