:020000040000FA
:0400000007EF00F016
:100008007D8216ED06F0BAEF05F06A6E200E6A18CA
:10001800D8A404D01D501E10D8B412000D0E6A18B2
:10002800D8A405D0000E1E6E000E1D6E12000A0E1A
:100038006A18D8A407D07C50080DF3501B26F4503A
:100048001C221200000E6C6E6A50050D7F0E656E44
:10005800F90E666EF3506526F45066226C506526DC
:10006800000E662265C0F6FF66C0F7FF0800F5CFF0
:1000780069F0000E6B6E69A03BD07C04D8A413D045
:100088006C501D24516E000E1E20526E6B501B24A6
:10009800536E000E1C20546E7AC055F07BC056F08B
:1000A80091EC05F066D06C507C02F3CF65F0F4CF8C
:1000B80066F01D506524516E1E506620526E6B50BE
:1000C8007C02F3CF67F0F4CF68F01B506724536EBF
:1000D8001C506820546E7CC055F0566A7CC057F09E
:1000E800586A7AC059F07BC05AF0EDEC02F041D062
:1000F8007A50781804E17B507918D8B43AD07C0447
:10010800D8A413D06C501D24516E000E1E20526EC0
:100118006B501B24536E000E1C20546E78C055F093
:1001280079C056F091EC05F024D06C507C02F3CFE6
:1001380065F0F4CF66F01D506524516E1E506620A0
:10014800526E6B507C02F3CF67F0F4CF68F01B500F
:100158006724536E1C506820546E7CC055F0566A54
:100168007CC057F0586A78C059F079C05AF0EDEC65
:1001780002F06B2AD8906932070E6B647CD76C2A20
:10018800040E6C6461D77A50781804E17B507918B2
:10019800D8B437D07C04D8A415D0050E1D24516ED0
:1001A800000E1E20526E1BC053F01CC054F0000EEF
:1001B800566E080E556E78C057F079C058F0F0ECBE
:1001C80003F01FD07C50050DF3CF65F0F4CF66F037
:1001D8001D506524516E1E506620526E1BC053F090
:1001E8001CC054F07CC055F0566A7C50080DF3CF03
:1001F80057F0F4CF58F078C059F079C05AF0EDECC8
:1002080002F07C50060DF3501D26F4501E227C503F
:10021800060DF3CF65F0F4CF66F021506526225025
:1002280066221D50655C1E506658D8B004D021C0A7
:100238001DF022C01EF07C50050DF3CF65F0F4CF01
:1002480066F01D5065261E5066226550215C66507A
:100258002258D8B01200000E1E6E000E1D6E7C5083
:10026800080DF3501B26F4501C227C50656E666AFC
:10027800D89065366636D89065366636D890653635
:1002880066361F506526205066221B50655C1C5040
:100298006658D8B012001FC01BF020C01CF0120016
:1002A800DDD0010E526E020E516E000E546EB60E67
:1002B800536E000E566E080E556E000E586E040EE4
:1002C800576EF80E5A6E000E596EEDEC02F0010EE4
:1002D800526E1A0E516E000E546EB60E536E000E0C
:1002E800566E080E556E000E586E040E576EF80EB8
:1002F8005A6E000E596EEDEC02F0000E526EFE0EB4
:10030800516E000E546EBA0E536E000E566E100EDD
:10031800556E000E586E040E576EF80E5A6E000E8B
:10032800596EEDEC02F0010E526E160E516E000E73
:10033800546EBA0E536E000E566E100E556E000EA9
:10034800586E040E576EF80E5A6E000E596EEDEC8C
:1003580002F0000E526EFA0E516E000E546EBE0E72
:10036800536E000E566E300E556E000E586E0C0E03
:10037800576EF80E5A6E000E596EEDEC02F0000E34
:10038800526EFE0E516E000E546ECA0E536E000E63
:10039800566E280E556E000E586E040E576EF80EE7
:1003A8005A6E000E596EEDEC02F0010E526E020EFE
:1003B800516E000E546ECE0E536E000E566E200E09
:1003C800556E000E586E040E576EF80E5A6E000EDB
:1003D800596EEDEC02F0010E526E060E516E000ED3
:1003E800546ED20E536E000E566E180E556E000ED9
:1003F800586E040E576EF80E5A6E000E596EEDECDC
:1004080002F0010E526E0A0E516E000E546ED60E98
:10041800536E000E566E100E556E000E586E040E7A
:10042800576EF80E5A6E000E596EEDEC02F0010E82
:10043800526E0E0E516E000E546EDA0E536E000E92
:10044800566E080E556E000E586E040E576EF80E56
:100458005A6E000E596EEDEC02F012002650000A9A
:10046800D8A412001ED7A7D0400E416E35EC06F076
:100478000009D8B412002A0E4018D8A41200030E9E
:10048800256E1200000E1A6E000E196E0FD0400E67
:10049800416E35EC06F00009D8B408D01950350F74
:1004A800D96EDA6A40C0DFFF194A1A2A230E4018AB
:1004B800D8A4EDD71950340FD96EDA6A000EDF6E62
:1004C800350E6D6E6E6AC5EC04F0230E4018D8A484
:1004D8001200040E256E1200000E1A6E000E196E20
:1004E8000FD03F0E416E35EC06F00009D8B408D0A5
:1004F80019502B0FD96EDA6A3FC0DFFF194A1A2A42
:10050800230E3F18D8A4EDD7000E3F6E000E426EA2
:10051800000E416E000E446E000E436E5DEC06F058
:10052800000E666E000E656ED7EC05F019502A0FA6
:10053800D96EDA6A000EDF6E2B0E6D6E6E6AC5EC30
:1005480004F0000E256E1200000E666E000E656E39
:10055800D7EC05F0000E426E000E416E000E446EA0
:10056800000E436E5DEC06F0FF0E426E416854ECDF
:1005780006F0020E26EC06F0100E6D6EFF0E6E6E83
:10058800C5EC04F0050E736E0F0E726EF10EE82EB8
:10059800FED7722EFCD7732EFAD700F0050E736EB5
:1005A8000F0E726EF10EE82EFED7722EFCD7732E48
:1005B800FAD700F0C6D72550000AD8B455D7010A93
:1005C800D8B4C2D7020AD8B45DD7070AD8A4120093
:1005D80083D755505610D8B4120057505810D8B475
:1005E80012005AC063F059C064F02150515C225087
:1005F8005258D8B012001F50535C20505458D8B0ED
:100608001200FF0E5B6EFF0E5C6E555051245D6E3E
:10061800565052205E6E5B505D265C505E22215023
:100628005D5C22505E58D8A006D05150215C556EB2
:1006380052502258566EFF0E5B6EFF0E5C6E57507E
:1006480053245D6E585054205E6E5B505D265C509E
:100658005E221F505D5C20505E58D8A006D05350D3
:100668001F5C576E54502058586E8EEC06F051C0DF
:1006780043F052C044F053C045F054C046F055C052
:1006880047F056C048F057C049F058C04AF08BECC4
:1006980004F055C041F056C042F0436A446A57C05E
:1006A80045F058C046F0476A486A66EC05F041C014
:1006B8005FF042C060F043C061F044C062F006D011
:1006C80063506FEC06F064506FEC06F05F06000EA6
:1006D800605A615A625A5F28F3E16028F1E16128A3
:1006E800EFE16228D8A4ECD788EC06F012008980E4
:1006F800050E446E0F0E436EF10EE82EFED7432E04
:10070800FCD7442EFAD700F08990050E446E0F0EE0
:10071800436EF10EE82EFED7432EFCD7442EFAD7AF
:1007280000F08980090E446E1E0E436EE40EE82E1A
:10073800FED7432EFCD7442EFAD700D08B808EEC00
:1007480006F0830E486EFE0E496E48C0F6FF49C09B
:10075800F7FF0800F5CF47F0484A492A2DD04750FF
:1007680077EC06F048C0F6FF49C0F7FF0800F5CF60
:1007780046F0484A492A46507F0B456E0AD048C081
:10078800F6FF49C0F7FF0800F5506FEC06F0484A3D
:10079800492A45064528D8A4F2D746AED6D7070E2B
:1007A800446E170E436E6A0EE82EFED7432EFCD712
:1007B800442EFAD700D0C9D74750D8A4D0D788EC50
:1007C80006F0000E226EF00E216E010E206E400E15
:1007D8001F6E000E2A6E12002150515C2250525892
:1007E800D8B012001F50535C20505458D8B0120093
:1007F80055505610D8B4120058C05DF057C05EF07E
:10080800FF0E596EFF0E5A6E555053245B6E5650AC
:1008180054205C6E59505B265A505C221F505B5C1A
:1008280020505C58D8A006D053501F5C556E5450C9
:100838002058566E8EEC06F051C043F052C044F07A
:1008480053C045F054C046F0000E486E010E476E86
:1008580055C049F056C04AF08BEC04F006D05D5004
:100868006FEC06F05E506FEC06F05506D8A0560601
:100878005528F5E15628D8A4F2D788EC06F01200DE
:10088800426EC6BA12004250040D010EF326000E45
:10089800F4227F0EF324F66EFE0EF420F76E0800A5
:1008A800F5CFC7FF4250040D7F0EF324F66EFE0EFF
:1008B800F420F76E0800F5CFC6FF000EC56E425053
:1008C800040D020EF326000EF4227F0EF324F66EBA
:1008D800FE0EF420F76E0800F5CFC8FF4250040D55
:1008E800030EF326000EF4227F0EF324F66EFE0E9E
:1008F800F420F76E0800F5CF41F0414641464146E5
:1009080094504118F70B4118946EC68A120047504C
:1009180043244B6E485044204C6EFF0E4B244D6EC2
:10092800FF0E4C204E6E495045244B6E4A504620CF
:100938004C6EFF0E4B244F6EFF0E4C20506E2A0E4D
:1009480077EC06F044506FEC06F043506FEC06F07D
:100958004E506FEC06F04D506FEC06F02B0E77EC16
:1009680006F046506FEC06F045506FEC06F050501C
:100978006FEC06F04F506FEC06F02C0E77EC06F09B
:100988001200000E716E1AD071506D246F6E000E39
:100998006E20706E6FC0F6FF70C0F7FF000EF86E25
:1009A8000F0EF76403D00800F55005D0F6CFE9FF25
:1009B800F7CFEAFFEF5009EC00F0712A71506D246F
:1009C8006F6E000E6E20706E6FC0F6FF70C0F7FF7E
:1009D800000EF86E0F0EF76403D00800F55005D02E
:1009E800F6CFE9FFF7CFEAFFEF500009D8B41200BD
:1009F800CBD7436E4350030B2A6E19D0480E436E73
:100A0800000E226EF00E216E010E206E400E0DD0EB
:100A1800280E03D0880EF3D7E80E436E010E226E1F
:100A2800400E216E000E206EF00E1F6E0DD02A5063
:100A3800000AD8B4E3D7010AD8B4EAD7030AD8B46D
:100A4800E9D7010AD8B4E8D78EEC06F0360E77EC71
:100A580006F043506FEC06F088EC06F01200EEEC5E
:100A680005F066EC06F0000E44EC04F07BEC03F0B5
:100A7800000E666E000E656ED7EC05F085EC06F08C
:100A880082EC06F0030EFDEC04F0520E756E2B0E90
:100A9800746E000EE82EFED7742EFCD7752EFAD78A
:100AA80000D037EC02F054EC01F0050E756E0F0E15
:100AB800746EF10EE82EFED7742EFCD7752EFAD779
:100AC80000F0EFD7000E496E000E4A6E000E4B6E16
:100AD800000E4C6E41A008D04550492646504A2287
:100AE80047504B2248504C22D89045364636473618
:100AF8004836D89044324332423241324150421053
:100B080043104410D8A4E6D749C041F04AC042F087
:100B18004BC043F04CC044F012002150515C2250AD
:100B28005258D8B012001F50535C20505458D8B0B7
:100B380012008EEC06F051C043F052C044F053C08E
:100B480045F054C046F0000E486E010E476E000E88
:100B58004A6E010E496E8BEC04F056506FEC06F0AD
:100B680055506FEC06F088EC06F01200FC0EF66E9D
:100B78000C0EF76E000EF86E00EE76F010EE07F031
:100B88000900F5CFEEFFE550E150FAE100EE01F083
:100B9800400EEE6AE806FDE17D907D92000EF86E4B
:100BA800000133EF05F0000E526E000E516E000E7C
:100BB800546E000E536E21C055F022C056F01FC06F
:100BC80057F020C058F065C059F066C05AF0EDECF7
:100BD80002F012000F0EC16E070EB46EF19E9368FC
:100BE8004AEC06F09494959A959C958ED59AD5964C
:100BF800D590D592D584F28AF28CF28E1200000E2E
:100C08008D6E000E8C6E010E896E000E8A6E070EB8
:100C18008B6E070E966E94909492FE0E926E936869
:100C2800956812000600F2A40BD0F294070ED6269F
:100C3800000ED722010E1526000E162217221822A2
:100C48007D921100436E4350D8A405D0000E426E29
:100C5800010E416E03D043C041F0426A41C07CF0AE
:100C680012009EAA07D04150D96EDA6AAECFDFFFD4
:100C7800010E1200000E1200C00EC76E000EC66EE6
:100C8800010EC86E9496949AC69A1200CF0EAF6E53
:100C9800AC84AC98AB8E948E948CAB88AC8A1200E2
:100CA80041C078F042C079F078C07AF079C07BF022
:100CB800120041C01DF042C01EF043C01BF044C0EA
:100CC8001CF0120090EC06F040EC06F003EC06F085
:100CD8008BEC06F01200416E41C0C9FF9EA6FED7FC
:100CE8009E96C9501200426E809042506FEC06F0FA
:0B0CF800808012000100FFFFFFFF01E1
:100D0400000E266E1200000E256E120080808B806D
:0E0D14001200000E9B6E12008B901200120057
:10F97E000000000000003E5B4F5B3E3E6B4F6B3E57
:10F98E001C3E7C3E1C183C7E3C181C577D571C1C94
:10F99E005E7F5E1C00183C1800FFE7C3E7FF0018EF
:10F9AE00241800FFE7DBE7FF30483A060E262979D8
:10F9BE002926407F050507407F05253F5A3CE73C39
:10F9CE005A7F3E1C1C08081C1C3E7F14227F2214EA
:10F9DE005F5F005F5F06097F017F006689956A6041
:10F9EE006060606094A2FFA29408047E0408102058
:10F9FE007E201008082A1C08081C2A08081E101051
:10FA0E0010100C1E0C1E0C30383E3830060E3E0EFA
:10FA1E0006000000000000005F0000000700070065
:10FA2E00147F147F14242A7F2A122313086462364B
:10FA3E00495620500008070300001C2241000041D7
:10FA4E00221C002A1C7F1C2A08083E080800807011
:10FA5E003000080808080800006060002010080444
:10FA6E00023E5149453E00427F4000724949494697
:10FA7E002141494D331814127F1027454545393C15
:10FA8E004A49493141211109073649494936464902
:10FA9E0049291E0000140000004034000000081424
:10FAAE00224114141414140041221408020159099D
:10FABE00063E415D594E7C1211127C7F49494936F2
:10FACE003E414141227F4141413E7F494949417F6B
:10FADE00090909013E414151737F0808087F004121
:10FAEE007F41002040413F017F081422417F40406A
:10FAFE0040407F021C027F7F0408107F3E4141413F
:10FB0E003E7F090909063E4151215E7F09192946AA
:10FB1E00264949493203017F01033F4040403F1FC0
:10FB2E002040201F3F4038403F63140814630304F5
:10FB3E007804036159494D43007F41414102040855
:10FB4E001020004141417F04020102044040404028
:10FB5E0040000307080020545478407F284444385E
:10FB6E003844444428384444287F385454541800A8
:10FB7E00087E090218A4A49C787F08040478004427
:10FB8E007D40002040403D007F1028440000417F12
:10FB9E0040007C047804787C08040478384444449B
:10FBAE0038FC1824241818242418FC7C0804040893
:10FBBE00485454542404043F44243C4040207C1CAC
:10FBCE002040201C3C4030403C44281028444C909F
:10FBDE0090907C4464544C440008364100000077F9
:10FBEE000000004136080002010204023C262326D2
:10FBFE003C1EA1A161123A4040207A385454555906
:10FC0E00215555794122545478422155547840203B
:10FC1E00545579400C1E5272123955555559395456
:10FC2E0054545939555454580000457C41000245EE
:10FC3E007D420001457C407D1211127DF028252861
:10FC4E00F07C545545002054547C547C0A097F495D
:10FC5E0032494949323A4444443A324A4848303AA1
:10FC6E004141217A3A42402078009DA0A07D3D423C
:10FC7E0042423D3D4040403D3C24FF2424487E49C5
:10FC8E0043662B2FFC2F2BFF0929F620C0887E09F7
:10FC9E000320545479410000447D413048484A3293
:10FCAE00384040227A007A0A0A727D0D19317D267B
:10FCBE0029292F28262929292630484D4020380861
:10FCCE0008080808080808382F10C8ACBA2F1028E2
:10FCDE0034FA00007B000008142A142222142A147D
:10FCEE00085500550055AA55AA55AAFF55FF55FFB0
:10FCFE00000000FF00101010FF00141414FF00107D
:10FD0E0010FF00FF1010F010F0141414FC00141467
:10FD1E00F700FF0000FF00FF1414F404FC14141786
:10FD2E00101F10101F101F1414141F00101010F0AD
:10FD3E00000000001F101010101F10101010F010F7
:10FD4E00000000FF101010101010101010FF100007
:10FD5E000000FF140000FF00FF00001F101700003E
:10FD6E00FC04F414141710171414F404F40000FF18
:10FD7E0000F714141414141414F700F714141417B1
:10FD8E001410101F101F141414F4141010F010F08F
:10FD9E0000001F101F0000001F14000000FC1400C4
:10FDAE0000F010F01010FF10FF141414FF141010B8
:10FDBE00101F00000000F010FFFFFFFFFFF0F0F03B
:10FDCE00F0F0FFFFFF0000000000FFFF0F0F0F0F0E
:10FDDE000F3844443844FC4A4A4A347E020206062E
:10FDEE00027E027E0263554941633844443C04401E
:10FDFE007E201E2006027E020299A5E7A5991C2AE6
:10FE0E00492A1C4C7201724C304A4D4D30304878A4
:10FE1E004830BC625A463D3E494949007E010101C7
:10FE2E007E2A2A2A2A2A44445F444440514A4440A6
:10FE3E0040444A51400000FF0103E080FF000008EB
:10FE4E00086B6B083612362436060F090F060000B3
:10FE5E0018180000001010003040FF0101001F01B3
:10FE6E00011E00191D1712003C3C3C3C0000000016
:10FE7E000000C00100EF03038002CF0300C130ED8C
:10FE8E000464031281E803850078CB05392C003415
:10FE9E0002F70120EA020000C00123C10110C502D1
:10FEAE003E28C701863601483701003A0155B10296
:10FEBE000018B603088227F20100260101E00F0F99
:10FECE00312B0C0E084EF1370710030E0900E10F0F
:10FEDE00000E1403110731C148080F0C31360F11F3
:10FEEE008029800077697468206372696E6B6C7903
:10FEFE002062696E646C65777572646C65732C0D27
:10FF0E000A00456C2076616C6F7220717565206DEC
:10FF1E0065206C6C65676F2065733A200D0A006D65
:10FF2E007920666F6F6E74696E67207475726C6976
:10FF3E006E6764726F6D65732E0D0A00416E6420DC
:10FF4E00686F6F7074696F75736C79206472616E0F
:10FF5E00676C65206D650D0A0077697468206D7990
:10FF6E0020626C7572676C656372756E6368656F1F
:10FF7E006E2C0D0A004F7220492077696C6C20722E
:10FF8E00656E6420746865650D0A00696E2074687C
:10FF9E006520676F6262657277617274730D0A0015
:10FFAE00736565206966204920646F6E2774210D84
:10FFBE000A004920696D706C6F7265207468656502
:10FFCE002C0D0A0048656C6C6F20576F726C6421A3
:10FFDE000D0A0044454144424545460D0A00313262
:10FFEE0033342E35360D0A0047726F6F700D0A00CE
:01FFFE000002
:020000040020DA
:08000000FFFFFFFFFFFFFFFF00
:020000040030CA
:0E000000FF06191EFF0180FF0FC00FE00F402A
:00000001FF
