:0400000007EF00F016
:10000800178209ED00F07DEF00F00600FACF01F04D
:10001800FBCF02F0E9CF03F0EACF04F0E1CF05F01F
:10002800E2CF06F0D9CF07F0DACF08F0F3CF09F026
:10003800F4CF0AF0F6CF0BF0F7CF0CF0F8CF0DF0B5
:10004800F5CF0EF017C00FF018C010F019C011F05E
:100058001AC012F0F2A40BD0F294070ED626000EA6
:10006800D722010E1326000E14221522162212C0C2
:100078001AF011C019F010C018F00FC017F00EC018
:10008800F5FF0DC0F8FF0CC0F7FF0BC0F6FF0AC064
:10009800F4FF09C0F3FF08C0DAFF07C0D9FF06C0A4
:1000A800E2FF05C0E1FF04C0EAFF03C0E9FF02C0A8
:1000B800FBFF01C0FAFF179211000F0EC16E070E69
:1000C800B46EF19E936873EC00F09494D59AD5962B
:1000D800D590D592D584F28AF28CF28E1200CF0E8A
:1000E800AF6EAC84AC98AB8E948E948CAB88AC8A93
:1000F8001200166A156A146A136A1790179200019B
:0A01080086EF00F061EC00F0FFD775
:020000040020DA
:08000000FFFFFFFFFFFFFFFF00
:020000040030CA
:0E000000FF06191EFF0180FF0FC00FE00F402A
:00000001FF
